{
  "contractName": "FSSAI",
  "abi": [
    {
      "constant": true,
      "inputs": [
        {
          "internalType": "string",
          "name": "",
          "type": "string"
        }
      ],
      "name": "Complaints",
      "outputs": [
        {
          "internalType": "string",
          "name": "ProductID",
          "type": "string"
        },
        {
          "internalType": "string",
          "name": "Complaint",
          "type": "string"
        }
      ],
      "payable": false,
      "stateMutability": "view",
      "type": "function"
    },
    {
      "constant": true,
      "inputs": [
        {
          "internalType": "string",
          "name": "",
          "type": "string"
        }
      ],
      "name": "Products",
      "outputs": [
        {
          "internalType": "string",
          "name": "ProductID",
          "type": "string"
        },
        {
          "internalType": "string",
          "name": "ProductName",
          "type": "string"
        },
        {
          "internalType": "string",
          "name": "Description",
          "type": "string"
        },
        {
          "internalType": "string",
          "name": "ManufacturerName",
          "type": "string"
        },
        {
          "internalType": "string",
          "name": "ManufactureDate",
          "type": "string"
        },
        {
          "internalType": "string",
          "name": "Bestbefore",
          "type": "string"
        },
        {
          "internalType": "string",
          "name": "RetailerName",
          "type": "string"
        }
      ],
      "payable": false,
      "stateMutability": "view",
      "type": "function"
    },
    {
      "constant": false,
      "inputs": [
        {
          "internalType": "string",
          "name": "ProductID",
          "type": "string"
        },
        {
          "internalType": "string",
          "name": "ProductName",
          "type": "string"
        },
        {
          "internalType": "string",
          "name": "Description",
          "type": "string"
        },
        {
          "internalType": "string",
          "name": "ManufacturerName",
          "type": "string"
        },
        {
          "internalType": "string",
          "name": "ManufactureDate",
          "type": "string"
        },
        {
          "internalType": "string",
          "name": "Bestbefore",
          "type": "string"
        }
      ],
      "name": "CreateProduct",
      "outputs": [],
      "payable": false,
      "stateMutability": "nonpayable",
      "type": "function"
    },
    {
      "constant": false,
      "inputs": [
        {
          "internalType": "string",
          "name": "ProductID",
          "type": "string"
        },
        {
          "internalType": "string",
          "name": "complaint",
          "type": "string"
        }
      ],
      "name": "CreateComplaint",
      "outputs": [],
      "payable": false,
      "stateMutability": "nonpayable",
      "type": "function"
    },
    {
      "constant": false,
      "inputs": [
        {
          "internalType": "string",
          "name": "ProductID",
          "type": "string"
        },
        {
          "internalType": "string",
          "name": "RetailerName",
          "type": "string"
        }
      ],
      "name": "AddProductToShelf",
      "outputs": [],
      "payable": false,
      "stateMutability": "nonpayable",
      "type": "function"
    }
  ],
  "bytecode": "0x608060405234801561001057600080fd5b50611613806100206000396000f3fe608060405234801561001057600080fd5b50600436106100575760003560e01c806361af7e191461005c5780637cac5499146101fc578063a58dc5311461034e578063b75dda7b146106fc578063f95118e414610ab8575b600080fd5b6101156004803603602081101561007257600080fd5b810190808035906020019064010000000081111561008f57600080fd5b8201836020820111156100a157600080fd5b803590602001918460018302840111640100000000831117156100c357600080fd5b91908080601f016020809104026020016040519081016040528093929190818152602001838380828437600081840152601f19601f820116905080830192505050505050509192919290505050610c0a565b604051808060200180602001838103835285818151815260200191508051906020019080838360005b8381101561015957808201518184015260208101905061013e565b50505050905090810190601f1680156101865780820380516001836020036101000a031916815260200191505b50838103825284818151815260200191508051906020019080838360005b838110156101bf5780820151818401526020810190506101a4565b50505050905090810190601f1680156101ec5780820380516001836020036101000a031916815260200191505b5094505050505060405180910390f35b61034c6004803603604081101561021257600080fd5b810190808035906020019064010000000081111561022f57600080fd5b82018360208201111561024157600080fd5b8035906020019184600183028401116401000000008311171561026357600080fd5b91908080601f016020809104026020016040519081016040528093929190818152602001838380828437600081840152601f19601f820116905080830192505050505050509192919290803590602001906401000000008111156102c657600080fd5b8201836020820111156102d857600080fd5b803590602001918460018302840111640100000000831117156102fa57600080fd5b91908080601f016020809104026020016040519081016040528093929190818152602001838380828437600081840152601f19601f820116905080830192505050505050509192919290505050610d74565b005b6106fa600480360360c081101561036457600080fd5b810190808035906020019064010000000081111561038157600080fd5b82018360208201111561039357600080fd5b803590602001918460018302840111640100000000831117156103b557600080fd5b91908080601f016020809104026020016040519081016040528093929190818152602001838380828437600081840152601f19601f8201169050808301925050505050505091929192908035906020019064010000000081111561041857600080fd5b82018360208201111561042a57600080fd5b8035906020019184600183028401116401000000008311171561044c57600080fd5b91908080601f016020809104026020016040519081016040528093929190818152602001838380828437600081840152601f19601f820116905080830192505050505050509192919290803590602001906401000000008111156104af57600080fd5b8201836020820111156104c157600080fd5b803590602001918460018302840111640100000000831117156104e357600080fd5b91908080601f016020809104026020016040519081016040528093929190818152602001838380828437600081840152601f19601f8201169050808301925050505050505091929192908035906020019064010000000081111561054657600080fd5b82018360208201111561055857600080fd5b8035906020019184600183028401116401000000008311171561057a57600080fd5b91908080601f016020809104026020016040519081016040528093929190818152602001838380828437600081840152601f19601f820116905080830192505050505050509192919290803590602001906401000000008111156105dd57600080fd5b8201836020820111156105ef57600080fd5b8035906020019184600183028401116401000000008311171561061157600080fd5b91908080601f016020809104026020016040519081016040528093929190818152602001838380828437600081840152601f19601f8201169050808301925050505050505091929192908035906020019064010000000081111561067457600080fd5b82018360208201111561068657600080fd5b803590602001918460018302840111640100000000831117156106a857600080fd5b91908080601f016020809104026020016040519081016040528093929190818152602001838380828437600081840152601f19601f820116905080830192505050505050509192919290505050610df9565b005b6107b56004803603602081101561071257600080fd5b810190808035906020019064010000000081111561072f57600080fd5b82018360208201111561074157600080fd5b8035906020019184600183028401116401000000008311171561076357600080fd5b91908080601f016020809104026020016040519081016040528093929190818152602001838380828437600081840152601f19601f820116905080830192505050505050509192919290505050610f7a565b604051808060200180602001806020018060200180602001806020018060200188810388528f818151815260200191508051906020019080838360005b8381101561080d5780820151818401526020810190506107f2565b50505050905090810190601f16801561083a5780820380516001836020036101000a031916815260200191505b5088810387528e818151815260200191508051906020019080838360005b83811015610873578082015181840152602081019050610858565b50505050905090810190601f1680156108a05780820380516001836020036101000a031916815260200191505b5088810386528d818151815260200191508051906020019080838360005b838110156108d95780820151818401526020810190506108be565b50505050905090810190601f1680156109065780820380516001836020036101000a031916815260200191505b5088810385528c818151815260200191508051906020019080838360005b8381101561093f578082015181840152602081019050610924565b50505050905090810190601f16801561096c5780820380516001836020036101000a031916815260200191505b5088810384528b818151815260200191508051906020019080838360005b838110156109a557808201518184015260208101905061098a565b50505050905090810190601f1680156109d25780820380516001836020036101000a031916815260200191505b5088810383528a818151815260200191508051906020019080838360005b83811015610a0b5780820151818401526020810190506109f0565b50505050905090810190601f168015610a385780820380516001836020036101000a031916815260200191505b50888103825289818151815260200191508051906020019080838360005b83811015610a71578082015181840152602081019050610a56565b50505050905090810190601f168015610a9e5780820380516001836020036101000a031916815260200191505b509e50505050505050505050505050505060405180910390f35b610c0860048036036040811015610ace57600080fd5b8101908080359060200190640100000000811115610aeb57600080fd5b820183602082011115610afd57600080fd5b80359060200191846001830284011164010000000083111715610b1f57600080fd5b91908080601f016020809104026020016040519081016040528093929190818152602001838380828437600081840152601f19601f82011690508083019250505050505050919291929080359060200190640100000000811115610b8257600080fd5b820183602082011115610b9457600080fd5b80359060200191846001830284011164010000000083111715610bb657600080fd5b91908080601f016020809104026020016040519081016040528093929190818152602001838380828437600081840152601f19601f8201169050808301925050505050505091929192905050506113fa565b005b600181805160208101820180518482526020830160208501208183528095505050505050600091509050806000018054600181600116156101000203166002900480601f016020809104026020016040519081016040528092919081815260200182805460018160011615610100020316600290048015610ccc5780601f10610ca157610100808354040283529160200191610ccc565b820191906000526020600020905b815481529060010190602001808311610caf57829003601f168201915b505050505090806001018054600181600116156101000203166002900480601f016020809104026020016040519081016040528092919081815260200182805460018160011615610100020316600290048015610d6a5780601f10610d3f57610100808354040283529160200191610d6a565b820191906000526020600020905b815481529060010190602001808311610d4d57829003601f168201915b5050505050905082565b806000836040518082805190602001908083835b60208310610dab5780518252602082019150602081019050602083039250610d88565b6001836020036101000a03801982511681845116808217855250505050505090500191505090815260200160405180910390206006019080519060200190610df49291906114b9565b505050565b6040518060e00160405280878152602001868152602001858152602001848152602001838152602001828152602001604051806020016040528060008152508152506000876040518082805190602001908083835b60208310610e715780518252602082019150602081019050602083039250610e4e565b6001836020036101000a03801982511681845116808217855250505050505090500191505090815260200160405180910390206000820151816000019080519060200190610ec0929190611539565b506020820151816001019080519060200190610edd929190611539565b506040820151816002019080519060200190610efa929190611539565b506060820151816003019080519060200190610f17929190611539565b506080820151816004019080519060200190610f34929190611539565b5060a0820151816005019080519060200190610f51929190611539565b5060c0820151816006019080519060200190610f6e929190611539565b50905050505050505050565b600081805160208101820180518482526020830160208501208183528095505050505050600091509050806000018054600181600116156101000203166002900480601f01602080910402602001604051908101604052809291908181526020018280546001816001161561010002031660029004801561103c5780601f106110115761010080835404028352916020019161103c565b820191906000526020600020905b81548152906001019060200180831161101f57829003601f168201915b505050505090806001018054600181600116156101000203166002900480601f0160208091040260200160405190810160405280929190818152602001828054600181600116156101000203166002900480156110da5780601f106110af576101008083540402835291602001916110da565b820191906000526020600020905b8154815290600101906020018083116110bd57829003601f168201915b505050505090806002018054600181600116156101000203166002900480601f0160208091040260200160405190810160405280929190818152602001828054600181600116156101000203166002900480156111785780601f1061114d57610100808354040283529160200191611178565b820191906000526020600020905b81548152906001019060200180831161115b57829003601f168201915b505050505090806003018054600181600116156101000203166002900480601f0160208091040260200160405190810160405280929190818152602001828054600181600116156101000203166002900480156112165780601f106111eb57610100808354040283529160200191611216565b820191906000526020600020905b8154815290600101906020018083116111f957829003601f168201915b505050505090806004018054600181600116156101000203166002900480601f0160208091040260200160405190810160405280929190818152602001828054600181600116156101000203166002900480156112b45780601f10611289576101008083540402835291602001916112b4565b820191906000526020600020905b81548152906001019060200180831161129757829003601f168201915b505050505090806005018054600181600116156101000203166002900480601f0160208091040260200160405190810160405280929190818152602001828054600181600116156101000203166002900480156113525780601f1061132757610100808354040283529160200191611352565b820191906000526020600020905b81548152906001019060200180831161133557829003601f168201915b505050505090806006018054600181600116156101000203166002900480601f0160208091040260200160405190810160405280929190818152602001828054600181600116156101000203166002900480156113f05780601f106113c5576101008083540402835291602001916113f0565b820191906000526020600020905b8154815290600101906020018083116113d357829003601f168201915b5050505050905087565b6040518060400160405280838152602001828152506001836040518082805190602001908083835b602083106114455780518252602082019150602081019050602083039250611422565b6001836020036101000a03801982511681845116808217855250505050505090500191505090815260200160405180910390206000820151816000019080519060200190611494929190611539565b5060208201518160010190805190602001906114b1929190611539565b509050505050565b828054600181600116156101000203166002900490600052602060002090601f016020900481019282601f106114fa57805160ff1916838001178555611528565b82800160010185558215611528579182015b8281111561152757825182559160200191906001019061150c565b5b50905061153591906115b9565b5090565b828054600181600116156101000203166002900490600052602060002090601f016020900481019282601f1061157a57805160ff19168380011785556115a8565b828001600101855582156115a8579182015b828111156115a757825182559160200191906001019061158c565b5b5090506115b591906115b9565b5090565b6115db91905b808211156115d75760008160009055506001016115bf565b5090565b9056fea265627a7a7231582061b575a0ff20305266c25c9cee6846f56eb555b157eb1bf55bb0d31f3822b4e764736f6c634300050c0032",
  "source": "pragma solidity >=0.4.22 <0.7.0;\r\ncontract FSSAI {\r\n\r\n    struct Product {\r\n        string  ProductID;\r\n        string  ProductName;        \r\n        string  Description; \r\n\r\n        string  ManufacturerName; \r\n        string  ManufactureDate;\r\n        string  Bestbefore;        \r\n        string  RetailerName; \r\n    }\r\n\r\n    mapping(string => Product) public Products;\r\n\r\n    struct Complaint {\r\n        string  ProductID;\r\n        string  Complaint;\r\n    }  \r\n\r\n    mapping(string => Complaint) public Complaints;\r\n\r\n    function CreateProduct( string memory ProductID, string memory  ProductName,        \r\n                            string memory Description, string memory ManufacturerName, \r\n                            string memory ManufactureDate, string memory Bestbefore        \r\n                            ) public {\r\n    \r\n        Products[ProductID] = Product(\r\n                                ProductID,ProductName,Description,ManufacturerName,ManufactureDate,Bestbefore,\"\"\r\n                                );\r\n    }\r\n\r\n    function CreateComplaint( string memory ProductID, string memory complaint ) public{\r\n    \r\n        Complaints[ProductID] = Complaint( ProductID,complaint);\r\n    }\r\n\r\n    function AddProductToShelf( string memory ProductID, string memory RetailerName ) public{\r\n    \r\n        Products[ProductID].RetailerName = RetailerName;\r\n    }\r\n\r\n}",
  "sourcePath": "C:/Users/Bobby/Desktop/FSSAI/blockchain_product_authenticity/src/contracts/FSSAI.sol",
  "compiler": {
    "name": "solc",
    "version": "0.5.12+commit.7709ece9.Emscripten.clang"
  },
  "schemaVersion": "3.0.18",
  "updatedAt": "2020-04-28T14:43:14.909Z",
  "networkType": "ethereum",
  "devdoc": {
    "methods": {}
  },
  "userdoc": {
    "methods": {}
  }
}